:100000005C18002055370000C1370000C1370000E0
:10001000C1370000C1370000C137000000000000F8
:100020000000000000000000000000000D3B000088
:10003000C137000000000000113C00004D3C0000F2
:10004000C137000011080000C1370000C1370000AF
:10005000D9350000C1370000C1370000C1370000AA
:10006000C1370000C1370000C1370000C1370000B0
:10007000C1370000C1370000C1370000C1370000A0
:10008000C1370000C1370000C1370000C137000090
:10009000C1370000C1370000C1370000C137000080
:1000A000C1370000C1370000C1370000C137000070
:1000B000C1370000C1370000F5360000C13700002D
:1000C000C1370000C1370000C1370000C137000050
:1000D000C1370000C1370000C1370000C137000040
:1000E000C1370000C1370000C1370000C137000030
:1000F000C1370000C1370000C1370000C137000020
:1001000080B582B000AF00F01BFB0346FB71FB79AA
:10011000184607F10807BD4680BD00BF80B500AF97
:1001200000F0D8FD024641F26413C2F200031A60E7
:1001300041F26013C2F200031A6841F26413C2F282
:1001400000031B68D21A40F24C03C2F20003196884
:100150004FF46253C0F2010303FB01F3D2184FF6D0
:100160007F43C0F20A039A4202D84FF0010301E034
:100170004FF00003184680BD80B582B000AF00F09C
:10018000DFFA0346FB7100F0A5FD024641F264135D
:10019000C2F200031A6041F26013C2F200031A684F
:1001A00041F26413C2F200031B68D21A40F24C03FE
:1001B000C2F2000319684FF46253C0F2010303FB5B
:1001C00001F3D2184FF68043C0F20A039A421ED9B7
:1001D00041F26013C2F200031A6841F26413C2F2E2
:1001E00000031B68D21A40F24C03C2F200031968E4
:1001F0004FF46253C0F2010303FB01F3D2184BF634
:100200009F33C0F20D039A4201D8FB7901E04FF011
:100210000003184607F10807BD4680BD80B500AF52
:1002200000F058FD024641F26413C2F200031A6066
:1002300041F26013C2F200031A6841F26413C2F281
:1002400000031B68D21A40F24C03C2F20003196883
:100250004FF46253C0F2010303FB01F3D21843F2DF
:100260007F13C0F217039A4202D84FF0010301E056
:100270004FF00003184680BD80B582B000AF00F09B
:100280005FFA0346FB7100F025FD024641F264135C
:10029000C2F200031A6041F26013C2F200031A684E
:1002A00041F26413C2F200031B68D21A40F24C03FD
:1002B000C2F2000319684FF46253C0F2010303FB5A
:1002C00001F3D2184FF44653C0F217039A421ED9D5
:1002D00041F26013C2F200031A6841F26413C2F2E1
:1002E00000031B68D21A40F24C03C2F200031968E3
:1002F0004FF46253C0F2010303FB01F3D21847F23B
:100300003F73C0F21B039A4201D8FB7901E04FF022
:100310000003184607F10807BD4680BD80B582B0CE
:1003200000AF00F025FA0346FB71FB79184607F190
:100330000807BD4680BD00BF80B582B000AF00F0A9
:1003400017FA0346FB7100F0C5FC024641F2641344
:10035000C2F200031A6041F26013C2F200031A688D
:1003600041F26413C2F200031B68D21A40F24C033C
:10037000C2F2000319684FF46253C0F2010303FB99
:1003800001F3D2184FF68043C0F20A039A421ED9F5
:1003900041F26013C2F200031A6841F26413C2F220
:1003A00000031B68D21A40F24C03C2F20003196822
:1003B0004FF46253C0F2010303FB01F3D2184BF672
:1003C0009F33C0F20D039A4201D8FB7901E04FF050
:1003D0000003184607F10807BD4680BD80B582B00E
:1003E00000AF00F0C5F90346FB7100F073FC024654
:1003F00041F26413C2F200031A6041F26013C2F2C8
:1004000000031A6841F26413C2F200031B68D21A97
:1004100040F24C03C2F2000319684FF46253C0F279
:10042000010303FB01F3D2184FF44653C0F2170344
:100430009A421ED941F26013C2F200031A6841F2D7
:100440006413C2F200031B68D21A40F24C03C2F2DA
:10045000000319684FF46253C0F2010303FB01F378
:10046000D21847F23F73C0F21B039A4201D8FB79BE
:1004700001E04FF00003184607F10807BD4680BDB4
:1004800080B483B000AF41F25A13C2F200031B786C
:10049000FB7141F25A13C2F200034FF000021A70CE
:1004A000FB79184607F10C07BD4680BC704700BFBA
:1004B00080B483B000AF41F25B13C2F200031B783B
:1004C000FB7141F25B13C2F200034FF000021A709D
:1004D000FB79184607F10C07BD4680BC704700BF8A
:1004E00080B500AF4FF0010001F024FD00F0F6F8F8
:1004F00000F01AF980BD00BF80B500AF4FF00200D8
:1005000001F018FD00F0EAF800F002F980BD00BF2C
:1005100080B500AF4FF0030001F00CFD00F0DEF8F5
:1005200000F0F6F880BD00BF80B500AF4FF00400CA
:1005300001F000FD00F0D2F800F0F6F880BD00BF39
:1005400080B500AF4FF00A0001F0F4FC00F0C6F8EF
:1005500000F0EAF880BD00BF80B500AF4FF00700A3
:1005600001F0E8FC00F0BAF800F0DEF880BD00BF52
:1005700080B500AF4FF0080001F0DCFC00F0AEF8F1
:1005800000F0C6F880BD00BF80B500AF4FF0090095
:1005900001F0D0FC00F0A2F800F0BAF880BD00BF76
:1005A00080B500AF4FF0060001F0C4FC80BD00BF75
:1005B00080B500AF4FF0000001F0BCFC41F28C139D
:1005C000C2F200031B68184601F0BEFE80BD00BFEA
:1005D00080B500AF00F07EFB024641F26413C2F228
:1005E00000031A6041F26013C2F200031A6841F27C
:1005F0006413C2F200031B68D21A40F24C03C2F229
:10060000000319684FF46253C0F2010303FB01F3C6
:10061000D2184BF6A033C0F20D039A4202D94FF024
:10062000010301E04FF00003184680BD80B500AF24
:1006300000F050FB024641F26413C2F200031A605C
:1006400041F26013C2F200031A6841F26413C2F26D
:1006500000031B68D21A40F24C03C2F2000319686F
:100660004FF46253C0F2010303FB01F3D21847F2C7
:100670004073C0F21B039A4202D94FF0010301E01C
:100680004FF00003184680BD80B500AF4FF000006A
:1006900001F050FC41F28C13C2F200031B681846B3
:1006A00001F052FE80BD00BF80B400AF41F259138B
:1006B000C2F200034FF000021A7041F25813C2F266
:1006C00000034FF000021A70BD4680BC704700BFA7
:1006D00080B500AF01F0B4FC80BD00BF80B500AFB5
:1006E00000F0F8FA024641F26013C2F200031A6009
:1006F00040F24C03C2F200034FF000021A6001F016
:10070000F7FF024641F26813C2F200031A6080BD8F
:1007100080B500AF41F26810C2F200004FF0140142
:1007200001F0BAFD80BD00BF80B500AF41F2681096
:10073000C2F200004FF00A0101F0AEFD80BD00BF23
:1007400080B483B000AF41F25813C2F200031B78AB
:10075000FB7141F25813C2F200034FF000021A700D
:10076000FB79184607F10C07BD4680BC704700BFF7
:1007700080B483B000AF41F25913C2F200031B787A
:10078000FB7141F25913C2F200034FF000021A70DC
:10079000FB79184607F10C07BD4680BC704700BFC7
:1007A00080B500AF4FF00200C2F2000000F0CEFDB5
:1007B0004FF4A040C4F200004FF0030101F032FBFF
:1007C0004FF4A040C4F200004FF003014FF00102CB
:1007D0004FF00C0301F0A2F980BD00BF80B500AF5F
:1007E0004FF0110002F056FA4FF4A040C4F200009E
:1007F0004FF003014FF0010201F026F94FF4A04041
:10080000C4F200004FF0030101F0A0FA80BD00BF68
:10081000684620F007018D4681B587B000AF4FF4E0
:10082000A040C4F200004FF0010101F0A5FAF86009
:10083000FB6803F00103DBB2002B37D04FF4A04379
:10084000C4F200037B614FF00103FB74FB7C786909
:10085000194601F0BDFA0346BB60BB6803F01F03F5
:10086000BB60BB68012B1AD141F25813C2F20003DE
:100870004FF001021A7041F28C13C2F200031B68A0
:10088000184601F0C1FD0346012B0FD141F28C1334
:10089000C2F200031B68184601F0DEFD06E041F2DB
:1008A0005913C2F200034FF001021A70FB6803F003
:1008B0000203002B37D04FF4A043C4F200037B6146
:1008C0004FF00203FB74FB7C7869194601F080FA53
:1008D00003467B607B6803F01F037B607B68012B12
:1008E0001AD141F25813C2F200034FF001021A70FC
:1008F00041F28C13C2F200031B68184601F084FD1C
:100900000346012B0FD141F28C13C2F200031B6886
:10091000184601F0A1FD06E041F25913C2F20003AE
:100920004FF001021A70FB7C7869194601F03EFA1B
:1009300007F11C07BD46BDE881408546704700BFF2
:1009400080B584B000AF42F6D223C0F28E03BB6004
:1009500042F61003C0F280037B604FF46043C4F2A0
:100960000F0342F61002C0F280721A674FF4604320
:10097000C4F20F0343F6D122C0F28E721A664FF40E
:100980006043C4F20F0342F6D222C0F28E021A660E
:100990004FF46043C4F20F0342F61002C0F280022B
:1009A0001A674FF00003FB6003E0FB6803F10103EB
:1009B000FB60FA6840F2E7339A42F6D94FF460439D
:1009C000C4F20F0342F6D222C0F28E021A664FF42E
:1009D0006043C4F20F0342F61002C0F280021A67AD
:1009E0004FF00003FB6003E0FB6803F10103FB60D1
:1009F000FA6840F2E7339A42F6D94FF46043C4F202
:100A00000F0342F6D222C0F28E021A664FF4604300
:100A1000C4F20F0342F6D222C0F28E021A664FF4DD
:100A20006043C4F20F0342F61002C0F280021A675C
:100A30004FF00003FB6003E0FB6803F10103FB6080
:100A4000FA6842F20F739A42F6D94FF46043C4F247
:100A50000F031B6EBB604FF46043C4F20F031B6FA8
:100A60007B607B68002B56DA7B6803F40063002B05
:100A700014D0BB684FEA931303F00F027B684FEA70
:100A8000131303F007031046194600F075F80246E9
:100A900040F23003C2F200031A6008E040F2300373
:100AA000C2F200034FF44242C0F6EB321A60BB6858
:100AB00003F48003002B5AD07B6803F40063002BFF
:100AC00013D040F23003C2F200031A687B684FEA89
:100AD000D35303F03F0303F10103B2FBF3F240F2FF
:100AE0003003C2F200031A6041E040F23003C2F268
:100AF00000031A687B684FEAD35303F03F0303F106
:100B00000103B2FBF3F34FEA530240F23003C2F2A7
:100B100000031A602BE0BB684FEA931303F00F0247
:100B2000BB684FEA131303F003031046194600F0A5
:100B300023F8024640F23003C2F200031A60BB6899
:100B400003F48003002B12D040F23003C2F2000302
:100B50001A68BB684FEAD35303F00F0303F1010394
:100B6000B2FBF3F240F23003C2F200031A6007F165
:100B70001007BD4680BD00BF80B485B000AF78606F
:100B800039604FF4D853C0F2B703FB603B68032BC6
:100B900000F2988001A252F823F000BFAD0B0000D4
:100BA000A30C0000AF0C0000BB0C00007B680F2BF7
:100BB00000F2878001A252F823F000BFFD0B000075
:100BC000090C0000110C00001D0C0000250C000099
:100BD000310C0000390C0000450C00004D0C0000E9
:100BE000550C0000610C00006D0C0000790C000039
:100BF000850C00008D0C0000990C000044F240238D
:100C0000C0F20F03FB604BE04FF4E113FB6047E0E1
:100C100048F28043C0F21E03FB6041E04FF416131C
:100C2000FB603DE049F69963C0F23603FB6037E0B4
:100C30004FF46113FB6033E04FF41063C0F23D03E7
:100C4000FB602DE04FF47A13FB6029E04FF496032C
:100C5000FB6025E044F64033C0F24C03FB601FE02C
:100C60004FF40053C0F24E03FB6019E048F6805386
:100C7000C0F25B03FB6013E04FF44043C0F25D033E
:100C8000FB600DE04FF4E103FB6009E04FF490538B
:100C9000C0F27A03FB6003E04FF4FA03FB6000BF8D
:100CA00010E04FF4D853C0F2B703FB600AE04CF2F7
:100CB000C063C0F22D03FB6004E047F23053FB60D9
:100CC00000E000BFFB68184607F11407BD4680BC72
:100CD000704700BF80B582B000AF4FF000037B606B
:100CE00002F0F2FF78607B68184607F10807BD46FE
:100CF00080BD00BF80B584B004AF03F04DF801F0B3
:100D0000DFF802F0C9FBFFF74BFDFFF767FD44F288
:100D10005053C0F200034FF00202009241F28C12D5
:100D2000C2F2000201924FF0000202924FF0000264
:100D3000039243F6AD50C0F2000019464FF0C802CE
:100D40004FF47A7301F0D2F944F26C53C0F200030D
:100D50004FF0010200924FF0000201924FF00002AA
:100D600002924FF00002039243F68D50C0F2000051
:100D700019464FF0C8024FF47A7301F0B7F941F207
:100D80008C13C2F200031B68184601F0DDFA01F073
:100D9000B9FBFEE780B582B000AF4FF000037B6087
:100DA00001F09AF94FF000037B6071E041F290127C
:100DB000C2F2000279680B464FEAC3035B184FEAA0
:100DC0008303D3187A681A6041F29012C2F20002CB
:100DD00079680B464FEAC3035B184FEA8303D318C5
:100DE00003F104037A681A6041F29012C2F2000221
:100DF00079680B464FEAC3035B184FEA8303D318A5
:100E000003F108037A681A6041F29012C2F20002FC
:100E100079680B464FEAC3035B184FEA8303D31884
:100E200003F114037A681A6041F29012C2F20002D0
:100E300079680B464FEAC3035B184FEA8303D31864
:100E400003F118037A681A60786841F29012C2F2CE
:100E5000000279680B464FEAC3035B184FEA83032D
:100E6000D31803F11C03186041F29012C2F2000281
:100E700079680B464FEAC3035B184FEA8303D31824
:100E800003F120037A681A607B6803F101037B6039
:100E90007B68132B8ADD07F10807BD4680BD00BFC4
:100EA00080B485B000AFF860B9607A6040F250035A
:100EB000C2F200031B68132B00F39D8040F2500325
:100EC000C2F20003196840F25003C2F2000318682E
:100ED00041F29012C2F200020B464FEAC3035B18C4
:100EE0004FEA8303D318186040F25003C2F20003A4
:100EF000196841F29012C2F200020B464FEAC30396
:100F00005B184FEA8303D31803F11C03FA681A60D5
:100F100040F25003C2F20003196841F29012C2F28B
:100F200000020B464FEAC3035B184FEA8303D31852
:100F300003F120034FF001021A6040F25003C2F2A5
:100F40000003196841F29012C2F200020B464FEA08
:100F5000C3035B184FEA8303D31803F10403BA6891
:100F60001A6040F25003C2F20003196841F2901275
:100F7000C2F200020B464FEAC3035B184FEA830339
:100F8000D31803F108037A681A6040F25003C2F2E2
:100F90000003196841F29012C2F200020B464FEAB8
:100FA000C3035B184FEA8303D31803F114034FF014
:100FB00000021A6040F25003C2F20003196841F2C5
:100FC0009012C2F200020B464FEAC3035B184FEACD
:100FD0008303D31803F118034FF000021A6040F2A4
:100FE0005003C2F200031B6803F1010240F25003F8
:100FF000C2F200031A6040F25003C2F200031B6801
:10100000184607F11407BD4680BC704780B483B012
:1010100000AF7860396041F29012C2F20002396884
:101020000B464FEAC3035B184FEA8303D31803F15F
:101030001C037A681A6041F29012C2F20002396809
:101040000B464FEAC3035B184FEA8303D31803F13F
:1010500020034FF001021A6007F10C07BD4680BC67
:10106000704700BFF0B58FB002AF4FF00003FB62D6
:101070004FF000037B624FF00003BB624FF00003B0
:10108000FB6255E141F29012C2F20002F96A0B468E
:101090004FEAC3035B184FEA8303D31803F10C0331
:1010A000186841F29012C2F20002F96A0B464FEA48
:1010B000C3035B184FEA8303D31803F104031B68CF
:1010C000984220D141F29012C2F20002F96A0B4616
:1010D0004FEAC3035B184FEA8303D31803F11003ED
:1010E000186841F29012C2F20002F96A0B464FEA08
:1010F000C3035B184FEA8303D31803F108031B688B
:10110000984200F0118141F29012C2F20002F96A95
:101110000B464FEAC3035B184FEA8303D31803F16E
:1011200020031B68012B62D141F29012C2F200022F
:10113000F96A0B464FEAC3035B184FEA8303D318DF
:1011400003F11C031B68184602F096FE03467B62FF
:101150004FF00003BB620AE007F10402BB6AD31838
:101160004FF020021A70BB6A03F10103BB62BA6A36
:101170007B6A9A42F0DB07F10402BB6AD3184FF096
:1011800000021A7041F29012C2F20002F96A0B4694
:101190004FEAC3035B184FEA8303D31803F11C0320
:1011A000186841F29012C2F20002F96A0B464FEA47
:1011B000C3035B184FEA8303D31803F104031B68CE
:1011C0001C4641F29012C2F20002F96A0B464FEA45
:1011D000C3035B184FEA8303D31803F108031B68AA
:1011E00021461A464FF00F0300F050FF9CE041F2F9
:1011F0009012C2F20002F96A0B464FEAC3035B1871
:101200004FEA8303D31803F10C031B681E4641F217
:101210009012C2F20002F96A0B464FEAC3035B1850
:101220004FEA8303D31803F110031B681D4641F2F4
:101230009012C2F20002F96A0B464FEAC3035B1830
:101240004FEA8303D31803F114031B681C4641F2D1
:101250009012C2F20002F96A0B464FEAC3035B1810
:101260004FEA8303D31803F118031B68009344F279
:10127000B450C0F2000031462A46234600F018FF61
:1012800041F29012C2F20002F96A0B464FEAC30320
:101290005B184FEA8303D31803F11C03186841F26B
:1012A0009012C2F20002F96A0B464FEAC3035B18C0
:1012B0004FEA8303D31803F104031B681E4641F26F
:1012C0009012C2F20002F96A0B464FEAC3035B18A0
:1012D0004FEA8303D31803F108031B681D4641F24C
:1012E0009012C2F20002F96A0B464FEAC3035B1880
:1012F0004FEA8303D31803F114031B681C4641F221
:101300009012C2F20002F96A0B464FEAC3035B185F
:101310004FEA8303D31803F118031B680093314687
:101320002A46234600F0C4FEFB6A03F10103FB6278
:1013300040F25003C2F200031B68FA6A9A42FFF6B9
:10134000A1AE07F13407BD46F0BD00BF80B483B045
:1013500000AF78607B684FEA137244F20C63C0F20E
:10136000000353F822301A467B684FEA137144F2A7
:101370000C63C0F2000353F8213019687B684FEA10
:1013800003434FEA1343786800F4F8104FEA104023
:1013900003FA00F341EA0303136007F10C07BD46AB
:1013A00080BC70470138FDD1704700BF80B586B062
:1013B00000AF78604FF46043C4F20F031B6803F082
:1013C000E043002B0DD04FF46043C4F20F031A68C2
:1013D0004FF00003C7F2FF0302EA0303B3F1805F9B
:1013E00003D17B68002BC0F223814EF26003C4F26C
:1013F0000F031B683B614EF27003C4F20F031B68BE
:10140000FB603B6943F400633B613B6923F4800369
:101410003B61FB6843F40063FB604EF26003C4F27F
:101420000F033A691A604EF27003C4F20F03FA68B0
:101430001A603B6903F00203002B04D07B6803F0C1
:101440000203002B0AD03B6903F00103DBB2002B3F
:101450002FD07B6803F00103002B2AD17B6863F057
:1014600003033A6902EA03033B614EF26003C4F2EC
:101470000F033A691A60FB68002B09DAFB6803F076
:101480007003302B0CD0FB6803F07003702B07D077
:10149000FB68002B09DB3B6903F03003302B04D1E0
:1014A0004FF48050FFF77EFF03E04FF40020FFF77A
:1014B00079FF3B6923F45E5323F070033B617A6844
:1014C00043F2F07302EA03033A6942EA03033B6121
:1014D000FA684DF68F73C7F6FF7302EA0303FB60E9
:1014E0007A6842F23003C8F2000302EA0303FA68A2
:1014F00042EA0303FB607B6803F008034FEAC3037F
:10150000FA6842EA0303FB604EF25803C4F20F0389
:101510004FF040021A60FB68002B0CDA4EF27003A9
:10152000C4F20F03FA681A604EF26003C4F20F03AC
:101530003A691A600BE04EF26003C4F20F033A6995
:101540001A604EF27003C4F20F03FA681A604FF08B
:101550001000FFF727FF3B6923F0F86323F0030334
:101560003B617A684FF00303C0F2C07302EA0303E1
:101570003A6942EA03033B61FB6823F0FC53FB60DA
:101580007B6803F0FC53FA6842EA0303FB607B6864
:1015900003F08043002B13D03B6943F480033B618D
:1015A000FB6823F48003FB607A684FF00003C4F209
:1015B000400302EA0303FA6842EA0303FB6003E024
:1015C000FB6823F08043FB607B6803F40063002B1F
:1015D0001DD14FF400437B610CE04EF25003C4F286
:1015E0000F031B6803F04003002B07D17B6903F155
:1015F000FF337B617B69002BEFD100E000BF3B69CB
:1016000023F400633B61FB6823F40063FB604EF24C
:101610006003C4F20F033A691A604EF27003C4F219
:101620000F03FA681A604FF01000FFF7BBFE00E0EE
:1016300000BF07F11807BD4680BD00BF80B485B06C
:1016400000AF4EF26003C4F20F031B68FB604EF262
:101650007003C4F20F031B687B607B68002B03DA06
:101660007B6803F0700302E0FB6803F03003202B7B
:101670007FD0202B04D8002B0CD0102B17D0E6E005
:10168000602B00F0DC80702B00F0DD80302B00F050
:10169000D280DCE0FB6803F4F8634FEA931244F273
:1016A0003063C0F2000353F82230BB60D2E04FF445
:1016B0006043C4F20F031B6803F0E043002B0DD01E
:1016C0004FF46043C4F20F031A684FF00003C7F2EF
:1016D000FF0302EA0303B3F1805F05D14EF2C013AA
:1016E000C0F2E403BB6043E04FF46043C4F20F0375
:1016F0001A684FF00003C7F2FF0302EA03034FF03A
:101700000002C1F2010293420AD14FF46043C4F2D5
:101710000F031B684FEA03434FEA1343022B1BD00E
:101720004FF46043C4F20F031A684FF00003C7F28E
:10173000FF0302EA03034FF00002C1F203029342E7
:1017400010D14FF46043C4F20F031B684FEA034308
:101750004FEA1343002B05D14FF4D853C0F2B7031F
:10176000BB6005E04FF41053C0F2F403BB6071E0BE
:1017700070E04FF46043C4F20F031B6803F0E043D2
:10178000002B0DD04FF46043C4F20F031A684FF0E2
:101790000003C7F2FF0302EA0303B3F1805F05D140
:1017A00043F67003C0F23903BB6043E04FF460437B
:1017B000C4F20F031A684FF00003C7F2FF0302EAF6
:1017C00003034FF00002C1F2010293420AD14FF429
:1017D0006043C4F20F031B684FEA03434FEA13430D
:1017E000022B1BD04FF46043C4F20F031A684FF072
:1017F0000003C7F2FF0302EA03034FF00002C1F245
:101800000302934210D14FF46043C4F20F031B68EC
:101810004FEA03434FEA1343002B05D14CF2C06358
:10182000C0F22D03BB6005E04FF41063C0F23D032E
:10183000BB600FE00EE047F23053BB600AE04FF4AC
:101840008003BB6006E04FF40043BB6002E04FF052
:101850000003AEE07B68002B04DA7B6803F40063CE
:10186000002B07D07B68002B60DBFB6803F4006370
:10187000002B5BD14EF26403C4F20F031B683B6084
:101880004FF46043C4F20F031B6803F0E043002BE6
:101890000DD04FF46043C4F20F031A684FF00003F9
:1018A000C7F2FF0302EA0303B3F1805F14D13A6881
:1018B00043F6E07302EA03034FEA531303F1020312
:1018C000BA6802FB03F23B6803F01F0303F1020353
:1018D000B2FBF3F3BB6013E03A6843F6E07302EA4D
:1018E00003034FEA5313BA6802FB03F23B6803F0A9
:1018F0001F0303F101034FEA4303B2FBF3F3BB60A1
:101900003B6803F48043002B03D0BB684FEA5303CA
:10191000BB603B6803F40043002B03D0BB684FEA75
:101920009303BB60FB6843F48003FB60FB6803F434
:101930008003002B3CD07B68002B2EDA7B6803F001
:101940008043002B1DD07B68002B04DA7B6803F4F6
:101950000063002B07D07B68002B12DBFB6803F4CD
:101960000063002B0DD1BB684FEA43027B6803F094
:10197000FE534FEA935303F10103B2FBF3F3BB6051
:1019800016E07B6803F0FC534FEAD35303F10103E5
:10199000BA68B2FBF3F3BB600AE0FB6803F0F063E4
:1019A0004FEAD35303F10103BA68B2FBF3F3BB6010
:1019B000BB68184607F11407BD4680BC704700BFDE
:1019C00080B485B000AFF8600B467A60FB72FB68AC
:1019D00003F580631A467B6803F00103DBB2002B3A
:1019E00007D0FB6803F580631968FB7A41EA0303BB
:1019F00008E0FB6803F580631968FB7A6FEA03036C
:101A000001EA03031360FB6803F584631A467B68ED
:101A100003F00203002B07D0FB6803F58463196809
:101A2000FB7A41EA030308E0FB6803F58463196865
:101A3000FB7A6FEA030301EA0303136007F114075B
:101A4000BD4680BC704700BF80B485B000AFF86071
:101A50000B467A60FB72FB6803F581631A467B686C
:101A600003F00103DBB2002B07D0FB6803F58163B1
:101A70001968FB7A41EA030308E0FB6803F5816318
:101A80001968FB7A6FEA030301EA03031360FB683A
:101A900003F5806303F104031A467B6803F0020335
:101AA000002B09D0FB6803F5806303F10403196878
:101AB000FB7A41EA03030AE0FB6803F5806303F164
:101AC00004031968FB7A6FEA030301EA0303136056
:101AD000FB6803F5806303F10C031A467B6803F08F
:101AE0000403002B09D0FB6803F5806303F10C03AA
:101AF0001968FB7A41EA03030AE0FB6803F5806397
:101B000003F10C031968FB7A6FEA030301EA03038C
:101B1000136007F11407BD4680BC704780B485B0E0
:101B200000AFF8607A603B600B46FB72FB6803F520
:101B3000A0631A467B6803F00103DBB2002B07D0D9
:101B4000FB6803F5A0631968FB7A41EA030308E028
:101B5000FB6803F5A0631968FB7A6FEA030301EAE7
:101B600003031360FB6803F5A06303F104031A4643
:101B70007B6803F00203002B09D0FB6803F5A06328
:101B800003F104031968FB7A41EA03030AE0FB68E6
:101B900003F5A06303F104031968FB7A6FEA0303FA
:101BA00001EA03031360FB6803F5A1631A467B682F
:101BB00003F00403002B07D0FB6803F5A163196849
:101BC000FB7A41EA030308E0FB6803F5A1631968A7
:101BD000FB7A6FEA030301EA03031360FB6803F572
:101BE000A3631A467B6803F00803002B07D0FB6849
:101BF00003F5A3631968FB7A41EA030308E0FB6875
:101C000003F5A3631968FB7A6FEA030301EA030390
:101C10001360FB6803F5A06303F10C031A463B68ED
:101C200003F00103DBB2002B09D0FB6803F5A063CE
:101C300003F10C031968FB7A41EA03030AE0FB682D
:101C400003F5A06303F10C031968FB7A6FEA030341
:101C500001EA03031360FB6803F5A2631A463B68BD
:101C600003F00203002B07D0FB6803F5A263196899
:101C7000FB7A41EA030308E0FB6803F5A2631968F5
:101C8000FB7A6FEA030301EA03031360FB6803F5C1
:101C9000A26303F104031A463B6803F00403002B1C
:101CA00009D0FB6803F5A26303F104031968FB7A0A
:101CB00041EA03030AE0FB6803F5A26303F10403AE
:101CC0001968FB7A6FEA030301EA03031360FB68F8
:101CD00003F5A26303F10C031A463B6803F0080303
:101CE000002B09D0FB6803F5A26303F10C0319680C
:101CF000FB7A41EA03030AE0FB6803F5A26303F100
:101D00000C031968FB7A6FEA030301EA030313600B
:101D1000FB6803F5A5631A463B68002B07D1FB68F7
:101D200003F5A5631968FB7A41EA030308E0FB6841
:101D300003F5A5631968FB7A6FEA030301EA03035D
:101D4000136007F11407BD4680BC704780B483B0B0
:101D500000AF78600B46FB707B6803F582637A689E
:101D600002F582621168FA7841EA02021A6007F10C
:101D70000C07BD4680BC704780B483B000AF78606C
:101D80000B46FB70FB78002B04D07B6803F5836364
:101D90001B6805E07B6803F5826303F104031B689D
:101DA000184607F10C07BD4680BC704780B483B06D
:101DB00000AF78600B46FB707B6803F5826303F12C
:101DC0000C03FA781A6007F10C07BD4680BC704717
:101DD00080B483B000AF78600B46FB70FB784FEAAD
:101DE00083031A467B68D3181B68184607F10C0753
:101DF000BD4680BC704700BF80B483B000AF786040
:101E000013460A46FA70BB70FB784FEA83031A4602
:101E10007B68D318BA781A6007F10C07BD4680BCFE
:101E2000704700BF80B582B000AF78600B46FB7092
:101E3000FB78786819464FF00002FFF7C1FDFB7888
:101E4000786819464FF001024FF00803FFF766FE6D
:101E500007F10807BD4680BD80B582B000AF78604D
:101E60000B46FB70FB78786819464FF00102FFF7CC
:101E7000A7FDFB78786819464FF001024FF0080380
:101E8000FFF74CFE07F10807BD4680BD80B582B064
:101E900000AF78600B46FB70FB78786819464FF00E
:101EA0000202FFF78DFDFB78786819464FF00102BA
:101EB0004FF00803FFF732FE07F10807BD4680BD6B
:101EC00080B500AFFEF766FF44F28C60C0F2000000
:101ED0004FF019014FF00102FEF7E2FF44F2986063
:101EE000C0F200004FF001014FF00A02FEF7D8FFE8
:101EF00044F29C60C0F200004FF001014FF0140268
:101F0000FEF7CEFF44F29C60C0F200004FF00101EA
:101F10004FF01E02FEF7C4FF44F29C60C0F20000C6
:101F20004FF001014FF02802FEF7BAFFFFF79AF8D1
:101F300080BD00BF80B584B000AF78607B680A2B9D
:101F40005AD801A252F823F0751F0000811F00002B
:101F50008D1F0000991F0000A51F0000B11F000089
:101F6000BD1F0000C91F0000D51F0000E11F0000B9
:101F7000ED1F000044F2A063C0F20003FB603BE0F1
:101F800044F2AC63C0F20003FB6035E044F2B86396
:101F9000C0F20003FB602FE044F2C463C0F2000310
:101FA000FB6029E044F2D463C0F20003FB6023E04D
:101FB00044F2E463C0F20003FB601DE044F2EC6312
:101FC000C0F20003FB6017E044F2F863C0F20003C4
:101FD000FB6011E044F20873C0F20003FB600BE009
:101FE00044F21873C0F20003FB6005E044F228736A
:101FF000C0F20003FB6000BFF8684FF00101FFF77B
:1020000005F844F23870C0F200004FF00201FEF70C
:10201000FDFF44F23870C0F200004FF00301FEF7FC
:10202000F5FF44F23870C0F200004FF00401FEF7F3
:10203000EDFFFFF717F807F11007BD4680BD00BFA1
:1020400080B500AF44F24470C0F200004FF00101CF
:10205000FEF7DCFF44F25070C0F200004FF00201C6
:10206000FEF7D4FF44F26870C0F200004FF00301A5
:10207000FEF7CCFF44F27870C0F200004FF004018C
:10208000FEF7C4FFFEF7EEFF80BD00BF80B584B051
:1020900000AFF860B9607A60FB70FB78F868B968E7
:1020A0007A6800F0ADFF07F11007BD4680BD00BFA4
:1020B00080B586B002AFF860B9607A603B60BB69FA
:1020C0000093F868B9687A683B6801F089F807F10D
:1020D0001007BD4680BD00BF80B500AF44F2402070
:1020E000C0F20F0001F044F980BD00BF80B58AB096
:1020F00002AFF860B9603B601346FB80FB8818466E
:10210000396B00F029FDB861BB69002B00F0A68097
:10211000BB691A6BFB8803F1FF334FEA8303D318C3
:102120007B617B6923F007037B61FB880093B869BF
:10213000B968BA6A7B6B00F03BFC7869F9683A6869
:1021400001F0B4FC03461A46BB691A60FB6A002B17
:1021500002D0FB6ABA691A6001F028FD40F214133C
:10216000C2F200031B6803F1010240F21413C2F231
:1021700000031A6040F25403C2F200031B68002BF4
:102180000FD140F25403C2F20003BA691A6040F260
:102190001413C2F200031B68012B18D100F044FC99
:1021A00015E040F22413C2F200031B68002B0ED18D
:1021B00040F25403C2F200031B68DA6ABB6A9A4217
:1021C00005D840F25403C2F20003BA691A60BB6931
:1021D000DA6A40F21C13C2F200031B689A4206D965
:1021E000BB69DA6A40F21C13C2F200031A6040F2C3
:1021F0003813C2F200031B6803F1010240F23813E6
:10220000C2F200031A60BB69DA6A40F22013C2F21C
:1022100000031B689A4206D9BB69DA6A40F22013B0
:10222000C2F200031A60BB69DA6A13464FEA8303FD
:102230009B184FEA83031A4640F25803C2F2000388
:10224000D218BB6903F104031046194601F0EEFAF7
:102250004FF00103FB6101F0BFFC02E04FF0FF33E0
:10226000FB61FB69012B11D140F22413C2F2000380
:102270001B68002B0AD040F25403C2F200031B6813
:10228000DA6ABB6A9A4201D201F084FCFB69184603
:1022900007F12007BD4680BD80B586B000AF7860ED
:1022A00039604FF000037B6100F066F97B681A68C3
:1022B0003B68D3183B617B681A6840F21813C2F27E
:1022C00000031B689A4210D97B681A683B699A42DE
:1022D0001BD940F21813C2F200031B683A699A42F4
:1022E00013D94FF001037B610FE07B681A683B69EB
:1022F0009A4207D840F21813C2F200031B683A69E9
:102300009A4202D94FF001037B617B683A691A60F7
:102310007B69002B0CD040F25403C2F200031B680F
:1023200003F10403184601F0E7FA386900F0CEFB28
:1023300000F034F9F860FB68002B01D101F02AFCB1
:1023400007F11807BD4680BD80B584B000AF786046
:1023500001F02CFC40F25403C2F200031B687A68BF
:102360009A4202D14FF000037B607B68002B05D1BD
:1023700040F25403C2F200031B6800E07B68FB607C
:10238000FB6803F10403184601F0B6FAFB689B6A88
:10239000002B05D0FB6803F11803184601F0ACFAD6
:1023A000FB6803F1040340F20010C2F2000019467A
:1023B00001F03CFA01F010FC7B68002B20D140F2C8
:1023C0002413C2F200031B68002B02D001F0E2FBD1
:1023D00016E040F20013C2F200031B681A4640F2F6
:1023E0001413C2F200031B689A4207D140F254034F
:1023F000C2F200034FF000021A6001E000F068FA38
:1024000007F11007BD4680BD80B485B000AF78608D
:102410004FF00003FB607B68BB60BB685A6940F209
:102420000013C2F200039A420ED1BB689A6A40F2CE
:10243000EC03C2F200039A4206D0BB689B6A002BF1
:1024400002D14FF00103FB60FB68184607F1140747
:10245000BD4680BC704700BF80B584B000AF7860D7
:102460007B68FB60FB68002B48D040F25403C2F24B
:1024700000031B68FA689A4240D001F097FBF868A5
:10248000FFF7C2FF0346012B36D1FB6803F10403BB
:10249000184601F031FAFB68DA6A40F22013C2F202
:1024A00000031B689A4206D9FB68DA6A40F22013DF
:1024B000C2F200031A60FB68DA6A13464FEA83032C
:1024C0009B184FEA83031A4640F25803C2F20003F6
:1024D000D218FB6803F104031046194601F0A6F96F
:1024E000FB68DA6A40F25403C2F200031B68DB6A3D
:1024F0009A4201D301F04EFB01F06EFB07F1100789
:10250000BD4680BD80B586B004AF44F28873C0F28A
:1025100000034FF0000200924FF0000201924FF0D2
:10252000000202924FF00002039242F6A110C0F2A4
:10253000000019464FF064024FF00003FFF7D6FD8C
:1025400078607B68012B13D14FF0A00080F31188D5
:1025500040F22413C2F200034FF001021A6040F26D
:102560001813C2F200034FF000021A6001F0E8FAFB
:1025700007F10807BD4680BD80B400AF40F22813C4
:10258000C2F200031B6803F1010240F22813C2F2F9
:1025900000031A60BD4680BC704700BF90B583B091
:1025A00000AF4FF000037B6001F000FB40F2281306
:1025B000C2F200031B6803F1FF3240F22813C2F29B
:1025C00000031A6040F22813C2F200031B68002BBC
:1025D00040F0868040F21413C2F200031B68002B07
:1025E0007ED04FF000033B603DE040F2EC03C2F2CE
:1025F0000003DB68DB681C4604F11803184601F091
:102600007BF904F10403184601F076F9E26A40F21E
:102610002013C2F200031B689A4205D9E26A40F215
:102620002013C2F200031A60E26A13464FEA8303E2
:102630009B184FEA83031A4640F25803C2F2000384
:10264000D21804F104031046194601F0EFF8E26ACB
:1026500040F25403C2F200031B68DB6A9A4202D3C1
:102660004FF001033B6040F2EC03C2F200031B6831
:10267000002BBAD140F22C13C2F200031B68002BCE
:1026800018D00DE000F048F840F22C13C2F200031D
:102690001B6803F1FF3240F22C13C2F200031A60F0
:1026A00040F22C13C2F200031B68002BEAD14FF05A
:1026B00001033B603B68012B06D040F23013C2F2AD
:1026C00000031B68012B0BD14FF001037B6040F22C
:1026D0003013C2F200034FF000021A6001F05AFA00
:1026E00001F07AFA7B68184607F10C07BD4690BDE9
:1026F00080B582B000AF01F059FA40F21813C2F26F
:1027000000031B687B6001F067FA7B68184607F1DD
:102710000807BD4680BD00BF80B584B000AF40F261
:102720002813C2F200031B68002B40F0C08040F267
:102730001813C2F200031B6803F1010240F21813E0
:10274000C2F200031A6040F21813C2F200031B68C1
:10275000002B40D140F2E403C2F200031B68FB608F
:1027600040F2E803C2F200031A6840F2E403C2F246
:1027700000031A6040F2E803C2F20003FA681A602C
:1027800040F23413C2F200031B6803F1010240F26D
:102790003413C2F200031A6040F2E403C2F20003F1
:1027A0001B681B68002B07D140F24003C2F20003F4
:1027B0004FF0FF321A600EE040F2E403C2F2000371
:1027C0001B68DB68DB68BB60BB685A6840F240038B
:1027D000C2F200031A6040F21813C2F200031A6832
:1027E00040F24003C2F200031B689A426BD340F2EE
:1027F000E403C2F200031B681B68002B07D140F200
:102800004003C2F200034FF0FF321A605BE040F277
:10281000E403C2F200031B68DB68DB68BB60BB68D3
:102820005B687B6040F21813C2F200031A687B6891
:102830009A4206D240F24003C2F200037A681A605C
:1028400041E0BB6803F10403184601F055F8BB688A
:102850009B6A002B05D0BB6803F11803184601F0F2
:102860004BF8BB68DA6A40F22013C2F200031B681F
:102870009A4206D9BB68DA6A40F22013C2F200031A
:102880001A60BB68DA6A13464FEA83039B184FEA63
:1028900083031A4640F25803C2F20003D218BB6801
:1028A00003F104031046194600F0C0FF9FE740F211
:1028B0002C13C2F200031B6803F1010240F22C1337
:1028C000C2F200031A6007F11007BD4680BD00BFC9
:1028D00080B483B000AF40F22813C2F200031B683B
:1028E000002B14D040F23013C2F200034FF001026B
:1028F0001A604FE040F22013C2F200031B6803F19C
:10290000FF3240F22013C2F200031A6000E000BF61
:1029100040F22013C2F200031A6813464FEA830301
:102920009B184FEA83031A4640F25803C2F2000391
:10293000D3181B68002BDDD040F22013C2F2000335
:102940001A6813464FEA83039B184FEA83031A461B
:1029500040F25803C2F20003D3187B607B685B68C7
:102960005B681A467B685A607B685A687B6803F12B
:1029700008039A4205D17B685B685B681A467B68EE
:102980005A607B685B68DB681A4640F25403C2F207
:1029900000031A6007F10C07BD4680BC704700BFFA
:1029A00080B582B000AF786000F08AF8FCE700BF25
:1029B00080B584B000AFF860B9607A603B60FB68B6
:1029C00003F134031A46BB68104619464FF00C0257
:1029D00001F082FAFB684FF0000283F83F207B6829
:1029E000042B02D94FF004037B60FB687A68DA623B
:1029F000FB6803F10403184600F00AFFFB6803F1CB
:102A00001803184600F004FFFB68FA681A617B6837
:102A1000C3F10502FB689A61FB68FA685A6207F124
:102A20001007BD4680BD00BF80B582B000AF4FF03B
:102A300000037B6013E07A6813464FEA83039B1818
:102A40004FEA83031A4640F25803C2F20003D31838
:102A5000184600F0B9FE7B6803F101037B607B68D8
:102A6000042BE8D940F2BC00C2F2000000F0ACFE3A
:102A700040F2D000C2F2000000F0A6FE40F2EC00EE
:102A8000C2F2000000F0A0FE40F20010C2F200000E
:102A900000F09AFE40F2E403C2F2000340F2BC02EE
:102AA000C2F200021A6040F2E803C2F2000340F2F0
:102AB000D002C2F200021A6007F10807BD4680BDCD
:102AC00080B400AFBD4680BC704700BF80B582B007
:102AD00000AF786040F25403C2F200031B687A68CA
:102AE0005A6040F21813C2F200031B687A689A42D7
:102AF00010D240F2E803C2F200031A6840F2540315
:102B0000C2F200031B6803F104031046194600F0EB
:102B1000B7FE1DE040F2E403C2F200031A6840F27F
:102B20005403C2F200031B6803F104031046194664
:102B300000F0A6FE40F24003C2F200031B687A6870
:102B40009A4205D240F24003C2F200037A681A604A
:102B500007F10807BD4680BD80B584B000AF0346CD
:102B60003960FB804FF0400001F0BAF80346FB608B
:102B7000FB68002B23D03B68002B07D1FB884FEA72
:102B80008303184601F0ACF8034600E03B68FA689E
:102B90001363FB681B6B002B06D1F86801F0ECF89F
:102BA0004FF00003FB600AE0FB681A6BFB884FEAFA
:102BB000830310464FF0A5011A4601F003F9FB68A4
:102BC000184607F11007BD4680BD00BF80B584B030
:102BD00000AF78607B68DB68FB607B68DB68FB606C
:102BE00013E0FB681B681A7840F23C13C2F2000342
:102BF0001B789A4205D1FB681B68184600F00EF856
:102C000007E0FB6803F10403FB60FB681B68002B13
:102C1000E7D107F11007BD4680BD00BF80B584B085
:102C200000AF78607B68DB68FB602BE0FB689B682B
:102C300098470346012B21D1FB68DB68002B02D0AB
:102C4000FB68DB689847FB681A7840F23C13C2F2D5
:102C500000031B789A4211D040F23C13C2F20003E9
:102C60001A7840F23D13C2F200031A70FB681A781A
:102C700040F23C13C2F200031A7007E0FB6803F154
:102C80001003FB60FB689B68002BCFD107F1100796
:102C9000BD4680BD80B483B000AF78607B68042BF4
:102CA0000CD14EF62453CEF200034EF62452CEF24F
:102CB0000002126842F480321A6051E07B68052BF2
:102CC0000CD14EF62453CEF200034EF62452CEF22F
:102CD0000002126842F400321A6041E07B68062B61
:102CE0000CD14EF62453CEF200034EF62452CEF20F
:102CF0000002126842F480221A6031E07B680F2BD8
:102D00000CD14EF21003CEF200034EF21002CEF2BE
:102D10000002126842F002021A6021E07B680F2B69
:102D20000FD97B682F2B0CD84FF46143CEF20003F0
:102D30007A68A2F110024FF0010101FA02F21A6062
:102D40000EE07B682F2B0BD94EF20413CEF200035A
:102D50007A68A2F130024FF0010101FA02F21A6022
:102D600007F10C07BD4680BC704700BF80B582B03C
:102D700000AF7860396040F24013C2F2000303F004
:102D8000704240F24013C2F2000323F07F4323F469
:102D900070034FEA431342EA030343F000731B68D6
:102DA000002B5BD040F24013C2F2000303F07042EC
:102DB00040F24013C2F2000323F07F4323F4700378
:102DC0004FEA431342EA030343F0007343F0040362
:102DD0001B68002B3ED000BF4FF40040C4F200003F
:102DE00000F04EFE0346002BF6D14FF48040C4F2B3
:102DF00000004FF040014FF00002FEF7FDFF40F2EF
:102E00004013C2F2000303F0704240F24013C2F2DA
:102E1000000323F07F4323F470034FEA431342EA95
:102E2000030343F0007343F004034FF000021A6001
:102E300010E07B681B787A6802F101027A604FF437
:102E40000040C4F20000194600F002FE3B6803F1A6
:102E5000FF333B603B68002BEBD100E000BF07F184
:102E60000807BD4680BD00BF80B582B000AF786066
:102E7000396040F24013C2F2000303F0704240F2A6
:102E80004013C2F2000323F07F4323F470034FEAA0
:102E9000431342EA030343F000731B68002B5BD02B
:102EA00040F24013C2F2000303F0704240F24013BC
:102EB000C2F2000323F07F4323F470034FEA43136D
:102EC00042EA030343F0007343F004031B68002B42
:102ED0003ED100BF4FF40040C4F2000000F0D0FD2E
:102EE0000346002BF6D14FF48040C4F200004FF0AF
:102EF00040014FF04002FEF77FFF40F24013C2F264
:102F0000000303F0704240F24013C2F2000323F0CA
:102F10007F4323F470034FEA431342EA030343F071
:102F2000007343F004034FF001021A6010E07B6865
:102F30001B787A6802F101027A604FF40040C4F213
:102F40000000194600F084FD3B6803F1FF333B604D
:102F50003B68002BEBD100E000BF07F10807BD463E
:102F600080BD00BF80B582B000AF40F24413C2F212
:102F700000034FF000021A6040F24413C2F2000353
:102F800003F104034FF000021A6044F6CC10C0F2C3
:102F900000004FF00301FFF7E9FE44F6D010C0F245
:102FA00000004FF00301FFF7E1FE44F29470C0F21D
:102FB00000004FF00201FFF7D9FE4FF000037B60E5
:102FC00016E04FF000033B600BE040F24410C2F209
:102FD00000004FF00801FFF747FF3B6803F11003C3
:102FE0003B603B687F2BF0D97B6803F101037B607A
:102FF0007B685F2BE5D907F10807BD4680BD00BFA0
:1030000080B588B000AFF860B9607A60FB7040F2BC
:103010004413C2F200034FF015021A70BB684FEA66
:103020005303DAB240F24413C2F200035A7040F282
:103030004413C2F200034FF03F029A7040F2441072
:10304000C2F200004FF00301FFF790FE40F244137C
:10305000C2F200034FF075021A707B68DAB240F2D8
:103060004413C2F200035A707B68DBB203F107031A
:10307000DAB240F24413C2F200039A7040F24410F4
:10308000C2F200004FF00301FFF770FE44F29070AF
:10309000C0F200004FF00201FFF768FE94E0FB6809
:1030A0001B7803F07F03FB75FB6803F10103FB60F2
:1030B000FB7D1F2B03D84FF00003FB7503E0FB7D66
:1030C000A3F12003FB754FF00003FB6179E04FF0A3
:1030D0000003BB615FE040F24413C2F20003BA692F
:1030E0009B184FF000021A70F97D44F29872C0F2FA
:1030F00000020B464FEA83035B18F9695B18D3188B
:103100001B781A46BB6942FA03F303F00103DBB2F2
:10311000002B0AD0FB784FEA0313DAB240F24413D3
:10312000C2F20003B9695B181A70FB69032B2ED831
:10313000F97DFB6903F1010044F29872C0F20002CC
:103140000B464FEA83035B181B18D3181B781A46EB
:10315000BB6942FA03F303F00103DBB2002B16D084
:1031600040F24413C2F20003BA699B181B78DAB22A
:10317000FB7803F00F03DBB242EA0303DBB2DAB2FF
:1031800040F24413C2F20003B9695B181A70BB69BC
:1031900003F10103BB61BB69072B9CD940F24410CA
:1031A000C2F200004FF00801FFF75EFEBB6803F1BA
:1031B0000203BB60BB68802B0CD0FB6903F10203E8
:1031C000FB61FB69052B82D9FB681B78002B7FF420
:1031D00066AF00E000BF07F12007BD4680BD00BF1D
:1031E00080B584B000AFF860B9607A603B6040F2AF
:1031F0004413C2F200034FF015021A70BB684FEA85
:103200005303DAB240F24413C2F200035A70BA68B0
:103210003B68D318A3F102034FEA5303DAB240F23A
:103220004413C2F200039A7040F24410C2F200004C
:103230004FF00301FFF79AFD40F24413C2F200037E
:103240004FF075021A707B68DAB240F24413C2F292
:1032500000035A707B68DAB2BB69DBB2D318DBB209
:1032600003F1FF33DAB240F24413C2F200039A7062
:1032700040F24410C2F200004FF00301FFF776FD68
:1032800044F29470C0F200004FF00201FFF76EFDAF
:103290000CE03B684FEA5303F8681946FFF7E4FD7A
:1032A0003B684FEA5303FA68D318FB60BB69002BF5
:1032B0000CBF00230123DBB2BA6902F1FF32BA610D
:1032C000002BE6D107F11007BD4680BD80B584B064
:1032D00002AF78604FF40040C4F2000000F0A4FB9D
:1032E000FEF7ACF903467A6800924FF008020192AB
:1032F0004FF40040C4F2000019464FF003024FF0B3
:10330000000300F023FB4FF48040C4F200004FF0B4
:103310000801FEF7BBFD4FF48040C4F200004FF0FF
:1033200008014FF004024FF00A03FEF7F7FB4FF4D9
:103330000040C4F2000000F063FB40F24013C2F210
:10334000000303F0704240F24013C2F2000323F086
:103350007F4323F470034FEA431342EA030343F02D
:1033600000734FF001021A6007F10807BD4680BDE7
:1033700080B584B000AF78604FF01000C1F200005B
:10338000FDF7E4FF4FF00100C2F20000FDF7DEFFA1
:103390004FF00100C2F20000FDF7D8FF4FF480406B
:1033A000C4F200004FF02C01FEF770FD4FF4804096
:1033B000C4F200004FF02C014FF004024FF00A035A
:1033C000FEF7ACFB4FF48040C4F200004FF0C001A8
:1033D000FEF742FD4FF48040C4F200004FF0C00100
:1033E0004FF004024FF00803FEF798FB4FF48040C3
:1033F000C4F200004FF0C0014FF0C002FEF7FCFC29
:1034000040F24013C2F2000303F0704240F2401356
:10341000C2F2000323F07F4323F470034FEA431307
:1034200042EA030343F0007343F004034FF0010248
:103430001A607868FFF74AFFFFF794FD4FF000032A
:10344000FB6021E0FB6803F1010244F67813C0F24F
:103450000003D21844F67813C0F20003F9685B1831
:103460001B7803F1FF3310461946FFF77FFC44F643
:103470007813C0F20003FA689B181B781A46FB68A1
:10348000D31803F10103FB60FB684E2BDAD907F177
:103490001007BD4680BD00BF80B500AF4FF02000D3
:1034A000C2F20000FDF752FF4FF4A040C4F2020048
:1034B0004FF00201FEF7B6FC4FF4A040C4F2020048
:1034C0004FF002014FF001024FF00A03FEF726FB16
:1034D0004FF02E00FFF7DEFB4FF4A040C4F20200D5
:1034E0004FF002014FF00402FEF7AEFA4FF4A04095
:1034F000C4F202004FF00201FEF728FC4FF010006A
:10350000C2F20000FDF722FF4FF48040C4F2020037
:103510004FF00101FEF786FC4FF48040C4F2020038
:103520004FF001014FF001024FF00A03FEF7F6FAE7
:103530004FF48040C4F202004FF00201FEF772FC2B
:103540004FF48040C4F202004FF002014FF001023C
:103550004FF00A03FEF7E2FA4FF48040C4F2020093
:103560004FF00401FEF75EFC4FF48040C4F202000D
:103570004FF004014FF001024FF00A03FEF7CEFABC
:103580004FF48040C4F202004FF00801FEF74AFCFD
:103590004FF48040C4F202004FF008014FF00102E6
:1035A0004FF00A03FEF7BAFA4FF01400FFF772FB70
:1035B0004FF48040C4F202004FF00F014FF00402BC
:1035C000FEF742FA4FF48040C4F202004FF00F01C0
:1035D000FEF7BCFB80BD00BF684620F007018D46AA
:1035E00081B585B000AF4FF48040C4F202004FF0C7
:1035F0000101FEF7C1FB78607B6803F00103DBB2D9
:10360000002B28D04FF48043C4F20203FB604FF03C
:103610000103FB7241F25813C2F200034FF00102A2
:103620001A7041F25913C2F200034FF000021A70EF
:1036300041F28C13C2F200031B681846FEF7E4FE49
:103640000346012B07D141F28C13C2F200031B6821
:103650001846FEF701FF7B6803F00203002B15D02C
:103660004FF48043C4F20203FB604FF00203FB728D
:1036700041F25913C2F200034FF001021A7041F2F5
:103680005813C2F200034FF000021A707B6803F077
:103690000403002B0ED04FF48043C4F20203FB60FE
:1036A0004FF00403FB7241F25A13C2F200034FF0D1
:1036B00001021A707B6803F00803002B0ED04FF450
:1036C0008043C4F20203FB604FF00803FB7241F237
:1036D0005B13C2F200034FF001021A70FB7AF86824
:1036E0001946FEF763FB07F11407BD46BDE88140AC
:1036F00085467047684620F007018D4681B585B044
:1037000000AF4FF4A040C4F202004FF00101FEF7F9
:1037100033FB78607B6803F00203002B0ED04FF47C
:10372000A043C4F20203FB604FF00203FB7241F2BC
:103730005C13C2F200034FF001021A70FB7AF868C2
:103740001946FEF733FB07F11407BD46BDE881407B
:103750008546704780B582B000AF44F6D413C0F2FE
:1037600000037B6040F20003C2F200033B600BE009
:103770007B681A683B681A603B6803F104033B608E
:103780007B6803F104037B603A6840F24803C2F2AD
:1037900000039A42ECD3084808494FF000028842DF
:1037A000B8BF40F8042BFADBFDF7CAF8FDF7A2FA20
:1037B00007F10807BD4680BD4800002060140020C6
:1037C00080B400AFFEE700BF80B483B000AF786084
:1037D0007B6803F108031A467B685A607B684FF0E8
:1037E000FF329A607B6803F108031A467B68DA604F
:1037F0007B6803F108031A467B681A617B684FF007
:1038000000021A6007F10C07BD4680BC704700BF7C
:1038100080B483B000AF78607B684FF000021A611B
:1038200007F10C07BD4680BC704700BF80B485B06F
:1038300000AF786039607B685B68FB60FB685B6841
:103840001A463B685A607B685A683B689A60FB6816
:103850005B683A689A603A68FB685A603A687B68C5
:103860005A603B687A681A617B681B6803F1010241
:103870007B681A6007F11407BD4680BC704700BF23
:1038800080B485B000AF786039603B681B68BB606E
:10389000BB68B3F1FF3F03D17B681B69FB600EE09F
:1038A0007B6803F10803FB6002E0FB685B68FB6078
:1038B000FB685B681B681A46BB689A42F5D9FB68CF
:1038C0005B681A463B685A603B685B683A689A6076
:1038D0003B68FA689A603A68FB685A603B687A68A5
:1038E0001A617B681B6803F101027B681A6007F1AB
:1038F0001407BD4680BC704780B485B000AF7860C7
:103900007B685B687A6892689A607B689B687A6873
:1039100052685A607B681B69FB60FB685A687B6869
:103920009A4203D17B689A68FB685A607B684FF0C3
:1039300000021A61FB681B6803F1FF32FB681A6022
:1039400007F11407BD4680BC704700BF80B48BB040
:1039500000AFF860B9607A603B603B68022B02D12F
:103960004FF0080301E04FF000033B623B68002B7F
:1039700002D14FF0000301E04FF004033A6A42EA3B
:1039800003033B62FB6803F104033A6A1A60BA68F6
:103990003B6BB2FBF3F3FB614FF000037B627B6A8E
:1039A00003F102037B62FA697B6AB2FBF3F303F172
:1039B000FF33BB61BB69FF2BF1D8FB6803F1100338
:1039C0007A6A1A607B684FEA83137B617B6803F035
:1039D00030037B60BB694FEA03227B691A437B6833
:1039E0001A437B6B03F1FF3342EA03033B62FB683C
:1039F0003A6A1A6007F12C07BD4680BC704700BFC9
:103A000080B483B000AF78607B6803F104037A6808
:103A100002F10402126842F002021A6007F10C0778
:103A2000BD4680BC704700BF80B483B000AF7860F3
:103A30007B6803F104037A6802F10402126822F041
:103A400002021A6007F10C07BD4680BC704700BF38
:103A500080B483B000AF7860396000BF7B6803F149
:103A60000C031B6803F00203002BF7D07B6803F103
:103A700008033A681A6007F10C07BD4680BC70471E
:103A800080B483B000AF78607B6803F10C031B68DF
:103A900003F01003002B0CBF00230123DBB21846F8
:103AA00007F10C07BD4680BC704700BF80B485B0ED
:103AB00000AFF860B9607A60FB68A3F10403FB60B3
:103AC000FB684FF080721A60FB68A3F10403FB608F
:103AD000BA68FB681A60FB68A3F10403FB60FB682B
:103AE0004FF000021A60FB68A3F11403FB607A68D0
:103AF000FB681A60FB68A3F12003FB60FB681846B3
:103B000007F11407BD4680BC704700BF064B19681B
:103B10000868B0E8F00F80F309884FF0000080F3E8
:103B200011884EF00D0E70475400002003480068C5
:103B3000006880F3088862B600DF00BF08ED00E08F
:103B400080B500AF4EF62053CEF200034EF6205261
:103B5000CEF20002126842F460021A604EF6205360
:103B6000CEF200034EF62052CEF20002126842F06E
:103B700060421A6000F092F840F24403C2F200037F
:103B80004FF000021A60FFF7D1FF4FF00003184614
:103B900080BD00BF80B400AF4EF60453CEF20003E8
:103BA0004FF080521A60BD4680BC704780B400AFB1
:103BB0004FF0A00080F3118840F24403C2F20003EA
:103BC0001B6803F1010240F24403C2F200031A60D1
:103BD000BD4680BC704700BF80B400AF40F24403D4
:103BE000C2F200031B6803F1FF3240F24403C2F249
:103BF00000031A6040F24403C2F200031B68002B6A
:103C000003D14FF0000080F31188BD4680BC70479F
:103C1000EFF309800C4B1A6820E9F00F10602DE9D2
:103C200008404FF0A00080F31188FEF751FE4FF0DE
:103C3000000080F31188BDE8084019680868B0E802
:103C4000F00F80F3098870475400002080B582B0DF
:103C500000AF40F24C03C2F200031B6803F1010203
:103C600040F24C03C2F200031A604EF60453CEF247
:103C700000034FF080521A604FF000037B604FF05A
:103C8000A00080F31188FEF747FD4FF0000080F39D
:103C9000118807F10807BD4680BD00BF80B400AFA2
:103CA0004EF21403CEF2000343F67F02C0F201028B
:103CB0001A604EF21003CEF200034FF007021A60B2
:103CC000BD4680BC704700BF80B400AF4EF2180301
:103CD000CEF200031B681846BD4680BC704700BF8B
:103CE00080B584B000AF78604FF00003FB607B6864
:103CF00003F00703002B05D07B6823F0070303F1D3
:103D000008037B60FEF738FC41F25013C2F2000357
:103D10001A687B68D21840F6FF739A4224D841F2A1
:103D20005013C2F200031A687B68D21841F2501394
:103D3000C2F200031B689A4216D941F25013C2F234
:103D400000031A6840F25013C2F20003D318FB605C
:103D500041F25013C2F200031A687B68D21841F294
:103D60005013C2F200031A60FEF718FCFB681846F5
:103D700007F11007BD4680BD80B483B000AF786006
:103D800007F10C07BD4680BC704700BF80B483B00C
:103D900000AF7860FEE700BF80B500AF4FF46E5013
:103DA000C0F28070FDF702FB80BD00BF80B582B01D
:103DB00000AF786044F24050C0F20000FEF706FF0A
:103DC000F8E700BF032AC9B270B408D82AB1034685
:103DD000121803F8011B9342FBD170BC7047821884
:103DE000044601E004F8011B14F0030FFAD14FF070
:103DF000013303FB01F31FE044F8403C44F83C3C32
:103E000044F8383C44F8343C44F8303C44F82C3C0A
:103E100044F8283C44F8243C44F8203C44F81C3C3A
:103E200044F8183C44F8143C44F8103C44F80C3C6A
:103E300044F8083C44F8043C161B254640343F2E09
:103E4000DADC2C4607E044F8103C44F80C3C44F81B
:103E5000083C44F8043C161B254610340F2EF2DCB7
:103E600001E045F8043B541B032CFADC01E005F8A3
:103E7000011B9542FBD3B0E720F0030110F00300D3
:103E8000C0F1000051F8043B00F1040C4FEACC0CE7
:103E90006FF000021CBF22FA0CF213434FF0010C2A
:103EA0004CEA0C2C4CEA0C4CA3EB0C0222EA030269
:103EB00012EACC1204BF51F8043B0430F4D013F0E2
:103EC000FF0F1FBF013013F47F4F013013F47F0F3A
:103ED00018BF0130704700BF41EA000313F0030F21
:103EE000034670B414BF00250125032A94BF0025A2
:103EF00005F001050C460646CDB9B2B10D78344641
:103F0000531E04F8015B55B1B21C73B111F8015F87
:103F10001446013B02F8015C0132002DF5D123B1BA
:103F20000022013B04F8012BFBD170BC70472146F5
:103F300054F8045BA5F1013626EA050616F0803F29
:103F400005D1043A43F8045B032A2146EFD81E4604
:103F5000D3E700BF52454345435043494F4E5F4965
:103F60004E46524152524F4A4F535F6665765F66E6
:103F70006C616E636F5F706F73697469766F000058
:103F800001000000543F000001010000E1040000B6
:103F90000000000000000000000000000000000021
:103FA000455350455241520000000000A03F000020
:103FB00000000000803F0000524543454350434904
:103FC0004F4E5F494E46524152524F4A4F535F66E1
:103FD00065765F666C616E636F5F745F636F72744A
:103FE0006F5F6D696E000000524543454350434981
:103FF0004F4E5F494E46524152524F4A4F535F66B1
:1040000065765F666C616E636F5F6E65676174692C
:10401000766F5F745F636F72746F5F6F6B00000029
:1040200052454345435043494F4E5F494E465241E6
:1040300052524F4A4F535F6665765F745F636F728B
:10404000746F000001000000B83F00001D01000077
:10405000A906000002000000E83F0000390300004C
:10406000F90400000000000020400000D10500001D
:1040700089060000000000000000000000000000B1
:10408000000000004C4545525F4F4E00010000000B
:1040900084400000000000004440000052454345B9
:1040A000435043494F4E5F494E46524152524F4A48
:1040B0004F535F6665765F666C616E636F5F745FBA
:1040C0006C6172676F5F6D696E0000005245434519
:1040D000435043494F4E5F494E46524152524F4A18
:1040E0004F535F6665765F666C616E636F5F706F7E
:1040F00073697469766F5F745F6C6172676F5F6F0D
:104100006B00000052454345435043494F4E5F49C1
:104110004E46524152524F4A4F535F6665765F7426
:104120005F6C6172676F0000020000009C4000003D
:104130001D020000A906000003000000CC400000A2
:104140007902000011050000000000000441000099
:104150002D0600008906000000000000000000009D
:1041600000000000000000004C4545525F4F4646ED
:104170000000000002000000684100000000000094
:104180002841000052454345435043494F4E5F4943
:104190004E46524152524F4A4F535F6665765F66B4
:1041A0006C616E636F5F6E6567617469766F5F7473
:1041B0005F6C6172676F5F6F6B000000030000004F
:1041C0009C4000001D020000A90600000400000041
:1041D00084410000DD03000029050000000000000C
:1041E000044100002D0600008906000000000000C8
:1041F0000000000000000000000000004C45455297
:104200005F4F4E5F3200000003000000FC410000E1
:1042100000000000BC410000524543454350434963
:104220004F4E5F494E46524152524F4A4F535F667E
:1042300065765F666C616E636F5F706F73697469DA
:10424000766F5F745F636F72746F5F6F6B000000F7
:1042500004000000B83F00001D010000A906000096
:10426000050000001842000079010000D10600009E
:104270000000000020400000D10500008906000079
:10428000000000000000000000000000000000002E
:104290004C4545525F4F46465F3200000400000027
:1042A000904200000000000050420000524543458B
:1042B000435043494F4E5F494E46524152524F4A36
:1042C0004F535F6665765F646572656368615F70B2
:1042D000756C7361646F0000524543454350434918
:1042E0004F4E5F494E46524152524F4A4F535F66BE
:1042F00065765F697A717569657264615F70756C06
:104300007361646F0000000006000000AC42000012
:10431000B1040000A105000000000000D842000028
:104320008104000089060000000000000000000079
:10433000000000000000000050524547554E544117
:10434000520000000500000038430000000000009B
:104350000843000052454345435043494F4E5F498F
:104360004E46524152524F4A4F535F6665765F66E2
:104370006C616E636F5F6E6567617469766F000074
:1043800007000000544300001D0300005905000011
:10439000000000000000000000000000000000001D
:1043A000414354495641444F0000000006000000BC
:1043B000A043000000000000804300000700000050
:1043C000B83F00001D010000A90600000800000021
:1043D000184200007901000071050000060000008D
:1043E00020400000D1050000A105000000000000F1
:1043F0000000000000000000000000004C45455295
:104400005F4F46465F33000007000000FC4300009A
:1044100000000000BC430000080000009C400000B9
:104420001D020000A90600000900000084410000F0
:10443000DD030000890500000600000004410000C3
:104440002D060000A1050000000000000000000093
:1044500000000000000000004C4545525F4F4E5FD9
:104460003300000008000000584400000000000075
:1044700018440000090000009C4000001D020000DC
:10448000A90600000A000000CC40000079020000EC
:104490004105000006000000044100002D06000058
:1044A000A105000000000000000000000000000066
:1044B000000000004C4545525F4F46465F34000007
:1044C00009000000B4440000000000007444000033
:1044D0000A000000B83F00001D010000A90600000E
:1044E00000000000E83F000039030000B1050000B3
:1044F0000600000020400000D1050000A1050000DA
:1045000000000000000000000000000000000000AB
:104510004C4545525F4F4E5F340000000A000000DA
:104520001045000000000000D04400006163746981
:104530007661725F696E66726172726F6A6F730024
:10454000000000002C4500000000000000000020DA
:10455000765461736B5F526563696269725F496E1D
:1045600066726172726F6A6F7300000076546173D5
:104570006B5F49646C650000000044440000004A21
:10458000AAAAA40004AAAAAAAA404AAAAAAAAAA4B1
:104590004AAAAAAAAAA44AAAAAAAAAA44AAAAAAAA7
:1045A000AAA404AAAAAAAA40004AAAAAA40000008F
:1045B0004444000000000000000000000000000073
:1045C00000000000000000000000000000000000EB
:1045D00000000000000000000000000000000000DB
:1045E00000000000000000000000000000000000CB
:1045F00010E00F4014E00F401CE00F4010E00F40AF
:1046000040E00F4044E00F4048E00F4000E10F4021
:1046100004E10F4008E10F4010E10F4014E10F40AA
:1046200018E10F4020E10F4024E10F4028E10F4046
:1046300040420F0000201C0080841E0000802500E6
:10464000999E36000040380000093D0000803E0081
:1046500000004B00404B4C0000204E00808D5B0062
:1046600000C05D000080700000127A0000007D0034
:1046700080969800001BB7000080BB00C0E8CE0009
:10468000647ADA000024F4000000FA0048656C6CDB
:104690006F20504F50424C000900000009090000F3
:1046A000656E206573706572610000006C657965E8
:1046B0006E646F206F6E00006C6579656E646F20AC
:1046C0006F6666006C6579656E646F206F6E203270
:1046D000000000006C6579656E646F206F6666206F
:1046E00032000000090909090000000061637469D3
:1046F0007661646F000000006C6579656E646F2000
:104700006F666620330000006C6579656E646F200B
:104710006F6E2033000000006C6579656E646F2059
:104720006F666620340000006C6579656E646F20EA
:104730006F6E203400000000090909090909090900
:1047400009090900090909090909090909090000F4
:10475000616374697661722073656775696D6965F7
:104760006E746F3F00000000697A713A20646573CF
:104770006163746976617200646368613A206163A1
:10478000746976617200000049444C4500000000E5
:10479000A0560000A0520000000000000000004FE2
:1047A00000000007000700147F147F14242A7F2ACA
:1047B0001223130864623649552250000503000095
:1047C000001C2241000041221C0014083E0814086D
:1047D000083E08080050300000080808080800607B
:1047E00060000020100804023E5149453E00427F0F
:1047F000400042615149462141454B311814127F16
:104800001027454545393C4A49493001710905039E
:104810003649494936064949291E00363600000006
:1048200056360000081422410014141414140041D8
:104830002214080201510906324979413E7E1111C4
:10484000117E7F494949363E414141227F41412203
:104850001C7F494949417F090909013E4149497A7B
:104860007F0808087F00417F41002040413F017FD1
:10487000081422417F404040407F020C027F7F04A9
:1048800008107F3E4141413E7F090909063E4151E2
:10489000215E7F09192946464949493101017F01B5
:1048A000013F4040403F1F2040201F3F4038403FD5
:1048B00063140814630708700807615149454300F1
:1048C0007F41410002040810200041417F000402A2
:1048D00001020440404040400001020400205454C2
:1048E00054787F4844443838444444203844444849
:1048F0007F3854545418087E0901020C5252523E1B
:104900007F0804047800447D40002040443D007F3F
:104910001028440000417F40007C041804787C0883
:1049200004047838444444387C14141408081414DB
:10493000187C7C080404084854545420043F444024
:10494000203C4040207C1C2040201C3C4030403C0F
:1049500044281028440C5050503C4464544C4400AB
:104960000836410000007F000000413608000201C7
:10497000020402000000000003FD12E302AEE303A4
:104980009400E303A85FE30381B7E303823FE303FB
:10499000A052E303A100E303A200E302A4E303B1F6
:1049A00011E303B223E303B3E2E311B8010203040A
:1049B0000506080A0C0E1013161A1EE303BB01E3CA
:1049C00003BC3FE302AFE300AEE3000015003F008D
:0449D00075007F00EF
:1049D400A83F00008C400000744100000842000021
:1049E4009C42000044430000AC4300000844000023
:1049F40064440000C04400001C45000000000000A6
:104A0400001BB700001BB70000127A0000093D002C
:084A1400FFFFFFFFAAAAAAAAF6
:00000001FF
